{
  "address": "0x9A676e781A523b5d0C0e43731313A708CB607508",
  "abi": [
    {
      "inputs": [],
      "name": "InvalidInitialization",
      "type": "error"
    },
    {
      "inputs": [],
      "name": "NotInitializing",
      "type": "error"
    },
    {
      "inputs": [],
      "name": "ReentrancyGuardReentrantCall",
      "type": "error"
    },
    {
      "anonymous": false,
      "inputs": [],
      "name": "AuctionCancelled",
      "type": "event"
    },
    {
      "anonymous": false,
      "inputs": [
        {
          "indexed": true,
          "internalType": "address",
          "name": "winner",
          "type": "address"
        },
        {
          "indexed": false,
          "internalType": "uint256",
          "name": "amount",
          "type": "uint256"
        }
      ],
      "name": "AuctionEnded",
      "type": "event"
    },
    {
      "anonymous": false,
      "inputs": [
        {
          "indexed": true,
          "internalType": "address",
          "name": "bidder",
          "type": "address"
        },
        {
          "indexed": false,
          "internalType": "uint256",
          "name": "amount",
          "type": "uint256"
        },
        {
          "indexed": false,
          "internalType": "uint256",
          "name": "usdValue",
          "type": "uint256"
        }
      ],
      "name": "BidPlaced",
      "type": "event"
    },
    {
      "anonymous": false,
      "inputs": [
        {
          "indexed": true,
          "internalType": "address",
          "name": "bidder",
          "type": "address"
        },
        {
          "indexed": false,
          "internalType": "uint256",
          "name": "amount",
          "type": "uint256"
        },
        {
          "indexed": false,
          "internalType": "uint64",
          "name": "sourceChainSelector",
          "type": "uint64"
        }
      ],
      "name": "CrossChainBidReceived",
      "type": "event"
    },
    {
      "anonymous": false,
      "inputs": [
        {
          "indexed": true,
          "internalType": "address",
          "name": "bidder",
          "type": "address"
        },
        {
          "indexed": false,
          "internalType": "uint256",
          "name": "amount",
          "type": "uint256"
        }
      ],
      "name": "FundsRefunded",
      "type": "event"
    },
    {
      "anonymous": false,
      "inputs": [
        {
          "indexed": false,
          "internalType": "uint64",
          "name": "version",
          "type": "uint64"
        }
      ],
      "name": "Initialized",
      "type": "event"
    },
    {
      "inputs": [
        {
          "internalType": "uint256",
          "name": "amount",
          "type": "uint256"
        },
        {
          "internalType": "address",
          "name": "paymentToken_",
          "type": "address"
        }
      ],
      "name": "bidWithERC20",
      "outputs": [],
      "stateMutability": "nonpayable",
      "type": "function"
    },
    {
      "inputs": [
        {
          "internalType": "address",
          "name": "paymentToken_",
          "type": "address"
        }
      ],
      "name": "bidWithEth",
      "outputs": [],
      "stateMutability": "payable",
      "type": "function"
    },
    {
      "inputs": [
        {
          "internalType": "address",
          "name": "",
          "type": "address"
        }
      ],
      "name": "bids",
      "outputs": [
        {
          "internalType": "uint256",
          "name": "",
          "type": "uint256"
        }
      ],
      "stateMutability": "view",
      "type": "function"
    },
    {
      "inputs": [],
      "name": "endAuction",
      "outputs": [],
      "stateMutability": "nonpayable",
      "type": "function"
    },
    {
      "inputs": [],
      "name": "endTime",
      "outputs": [
        {
          "internalType": "uint256",
          "name": "",
          "type": "uint256"
        }
      ],
      "stateMutability": "view",
      "type": "function"
    },
    {
      "inputs": [],
      "name": "factory",
      "outputs": [
        {
          "internalType": "address",
          "name": "",
          "type": "address"
        }
      ],
      "stateMutability": "view",
      "type": "function"
    },
    {
      "inputs": [],
      "name": "feeManager",
      "outputs": [
        {
          "internalType": "contract FeeManager",
          "name": "",
          "type": "address"
        }
      ],
      "stateMutability": "view",
      "type": "function"
    },
    {
      "inputs": [],
      "name": "highestBid",
      "outputs": [
        {
          "internalType": "uint256",
          "name": "",
          "type": "uint256"
        }
      ],
      "stateMutability": "view",
      "type": "function"
    },
    {
      "inputs": [],
      "name": "highestBidder",
      "outputs": [
        {
          "internalType": "address",
          "name": "",
          "type": "address"
        }
      ],
      "stateMutability": "view",
      "type": "function"
    },
    {
      "inputs": [],
      "name": "highestUsdBid",
      "outputs": [
        {
          "internalType": "uint256",
          "name": "",
          "type": "uint256"
        }
      ],
      "stateMutability": "view",
      "type": "function"
    },
    {
      "inputs": [
        {
          "internalType": "address",
          "name": "_seller",
          "type": "address"
        },
        {
          "internalType": "address",
          "name": "_nftContract",
          "type": "address"
        },
        {
          "internalType": "uint256",
          "name": "_tokenId",
          "type": "uint256"
        },
        {
          "internalType": "uint256",
          "name": "_startPrice",
          "type": "uint256"
        },
        {
          "internalType": "uint256",
          "name": "_startTime",
          "type": "uint256"
        },
        {
          "internalType": "uint256",
          "name": "_endTime",
          "type": "uint256"
        },
        {
          "internalType": "address",
          "name": "_paymentToken",
          "type": "address"
        },
        {
          "internalType": "address",
          "name": "_feeManager",
          "type": "address"
        },
        {
          "internalType": "address",
          "name": "_factory",
          "type": "address"
        }
      ],
      "name": "initialize",
      "outputs": [],
      "stateMutability": "nonpayable",
      "type": "function"
    },
    {
      "inputs": [],
      "name": "nftContract",
      "outputs": [
        {
          "internalType": "address",
          "name": "",
          "type": "address"
        }
      ],
      "stateMutability": "view",
      "type": "function"
    },
    {
      "inputs": [],
      "name": "paymentToken",
      "outputs": [
        {
          "internalType": "address",
          "name": "",
          "type": "address"
        }
      ],
      "stateMutability": "view",
      "type": "function"
    },
    {
      "inputs": [
        {
          "internalType": "address",
          "name": "",
          "type": "address"
        }
      ],
      "name": "priceFeeds",
      "outputs": [
        {
          "internalType": "address",
          "name": "",
          "type": "address"
        }
      ],
      "stateMutability": "view",
      "type": "function"
    },
    {
      "inputs": [],
      "name": "seller",
      "outputs": [
        {
          "internalType": "address",
          "name": "",
          "type": "address"
        }
      ],
      "stateMutability": "view",
      "type": "function"
    },
    {
      "inputs": [
        {
          "internalType": "address",
          "name": "token",
          "type": "address"
        },
        {
          "internalType": "address",
          "name": "feed",
          "type": "address"
        }
      ],
      "name": "setPriceFeed",
      "outputs": [],
      "stateMutability": "nonpayable",
      "type": "function"
    },
    {
      "inputs": [],
      "name": "startPrice",
      "outputs": [
        {
          "internalType": "uint256",
          "name": "",
          "type": "uint256"
        }
      ],
      "stateMutability": "view",
      "type": "function"
    },
    {
      "inputs": [],
      "name": "startTime",
      "outputs": [
        {
          "internalType": "uint256",
          "name": "",
          "type": "uint256"
        }
      ],
      "stateMutability": "view",
      "type": "function"
    },
    {
      "inputs": [],
      "name": "startUsdPrice",
      "outputs": [
        {
          "internalType": "uint256",
          "name": "",
          "type": "uint256"
        }
      ],
      "stateMutability": "view",
      "type": "function"
    },
    {
      "inputs": [],
      "name": "status",
      "outputs": [
        {
          "internalType": "enum Auction.AuctionStatus",
          "name": "",
          "type": "uint8"
        }
      ],
      "stateMutability": "view",
      "type": "function"
    },
    {
      "inputs": [],
      "name": "tokenId",
      "outputs": [
        {
          "internalType": "uint256",
          "name": "",
          "type": "uint256"
        }
      ],
      "stateMutability": "view",
      "type": "function"
    },
    {
      "stateMutability": "payable",
      "type": "receive"
    }
  ],
  "transactionHash": "0x63b6fab93be76a408cebfdbdd7ec8a92c2b97abc39a5e6e3ee108c0f4efaf250",
  "args": [],
  "numDeployments": 1,
  "solcInputHash": "6b48cc9546373f84e826272d8b5264f9",
  "bytecode": "0x6080604052348015600f57600080fd5b506001600081905550613568806100276000396000f3fe60806040526004361061012e5760003560e01c80637fde841d116100ab578063d0fb02031161006f578063d0fb0203146103d0578063d56d229d146103fb578063d57bde7914610426578063f1a9af8914610451578063fce225281461047c578063fe67a54b146104a557610135565b80637fde841d146102e757806391f90157146103125780639dcb511a1461033d578063af6287641461037a578063c45a0155146103a557610135565b806335abc8bd116100f257806335abc8bd14610211578063489f9c881461022d57806362ea82db1461025657806376e112861461029357806378e97925146102bc57610135565b806308551a531461013a57806317d70f7c14610165578063200d2ed2146101905780633013ce29146101bb5780633197cbb6146101e657610135565b3661013557005b600080fd5b34801561014657600080fd5b5061014f6104bc565b60405161015c9190612532565b60405180910390f35b34801561017157600080fd5b5061017a6104e2565b6040516101879190612566565b60405180910390f35b34801561019c57600080fd5b506101a56104e8565b6040516101b291906125f8565b60405180910390f35b3480156101c757600080fd5b506101d06104fb565b6040516101dd9190612532565b60405180910390f35b3480156101f257600080fd5b506101fb610521565b6040516102089190612566565b60405180910390f35b61022b60048036038101906102269190612644565b610527565b005b34801561023957600080fd5b50610254600480360381019061024f919061269d565b610b9c565b005b34801561026257600080fd5b5061027d60048036038101906102789190612644565b6113d6565b60405161028a9190612566565b60405180910390f35b34801561029f57600080fd5b506102ba60048036038101906102b591906126dd565b6113ee565b005b3480156102c857600080fd5b506102d161156f565b6040516102de9190612566565b60405180910390f35b3480156102f357600080fd5b506102fc611575565b6040516103099190612566565b60405180910390f35b34801561031e57600080fd5b5061032761157b565b6040516103349190612532565b60405180910390f35b34801561034957600080fd5b50610364600480360381019061035f9190612644565b6115a1565b6040516103719190612532565b60405180910390f35b34801561038657600080fd5b5061038f6115d4565b60405161039c9190612566565b60405180910390f35b3480156103b157600080fd5b506103ba6115da565b6040516103c79190612532565b60405180910390f35b3480156103dc57600080fd5b506103e5611600565b6040516103f2919061277c565b60405180910390f35b34801561040757600080fd5b50610410611626565b60405161041d9190612532565b60405180910390f35b34801561043257600080fd5b5061043b61164c565b6040516104489190612566565b60405180910390f35b34801561045d57600080fd5b50610466611652565b6040516104739190612566565b60405180910390f35b34801561048857600080fd5b506104a3600480360381019061049e9190612797565b611658565b005b3480156104b157600080fd5b506104ba611bb3565b005b600160009054906101000a900473ffffffffffffffffffffffffffffffffffffffff1681565b60035481565b600f60009054906101000a900460ff1681565b600860009054906101000a900473ffffffffffffffffffffffffffffffffffffffff1681565b60075481565b61052f612379565b6000600281111561054357610542612581565b5b600f60009054906101000a900460ff16600281111561056557610564612581565b5b146105a5576040517f08c379a000000000000000000000000000000000000000000000000000000000815260040161059c906128be565b60405180910390fd5b60075442106105e9576040517f08c379a00000000000000000000000000000000000000000000000000000000081526004016105e09061292a565b60405180910390fd5b600073ffffffffffffffffffffffffffffffffffffffff168173ffffffffffffffffffffffffffffffffffffffff1614610658576040517f08c379a000000000000000000000000000000000000000000000000000000000815260040161064f90612996565b60405180910390fd5b60003490506004548110156106a2576040517f08c379a000000000000000000000000000000000000000000000000000000000815260040161069990612a02565b60405180910390fd5b600073610178dA211FEF7D417bC0e6FeD39F05609AD78863f7655ab483601060008073ffffffffffffffffffffffffffffffffffffffff1673ffffffffffffffffffffffffffffffffffffffff16815260200190815260200160002060009054906101000a900473ffffffffffffffffffffffffffffffffffffffff166040518363ffffffff1660e01b815260040161073c929190612a40565b602060405180830381865af4158015610759573d6000803e3d6000fd5b505050506040513d601f19601f8201168201806040525081019061077d9190612a7e565b9050600d5481116107c3576040517f08c379a00000000000000000000000000000000000000000000000000000000081526004016107ba90612af7565b60405180910390fd5b6107cd60046123bf565b6000600b60009054906101000a900473ffffffffffffffffffffffffffffffffffffffff1690506000600c54905061080560056123bf565b33600b60006101000a81548173ffffffffffffffffffffffffffffffffffffffff021916908373ffffffffffffffffffffffffffffffffffffffff16021790555083600c8190555082600d8190555083600e60003373ffffffffffffffffffffffffffffffffffffffff1673ffffffffffffffffffffffffffffffffffffffff16815260200190815260200160002060008282546108a39190612b46565b925050819055506108b460066123bf565b3373ffffffffffffffffffffffffffffffffffffffff167fdf8644c0a4c21ed214ce69f395675b3a5fcd1039083daea5058898de40ea314985856040516108fc929190612b7a565b60405180910390a261090e60076123bf565b6000600c5411801561094d5750600073ffffffffffffffffffffffffffffffffffffffff168273ffffffffffffffffffffffffffffffffffffffff1614155b15610b4b57600073ffffffffffffffffffffffffffffffffffffffff16600860009054906101000a900473ffffffffffffffffffffffffffffffffffffffff1673ffffffffffffffffffffffffffffffffffffffff1603610a5a5760008273ffffffffffffffffffffffffffffffffffffffff16826040516109ce90612bd4565b60006040518083038185875af1925050503d8060008114610a0b576040519150601f19603f3d011682016040523d82523d6000602084013e610a10565b606091505b5050905080610a54576040517f08c379a0000000000000000000000000000000000000000000000000000000008152600401610a4b90612c35565b60405180910390fd5b50610afc565b600860009054906101000a900473ffffffffffffffffffffffffffffffffffffffff1673ffffffffffffffffffffffffffffffffffffffff1663a9059cbb83836040518363ffffffff1660e01b8152600401610ab7929190612c55565b6020604051808303816000875af1158015610ad6573d6000803e3d6000fd5b505050506040513d601f19601f82011682018060405250810190610afa9190612cb6565b505b8173ffffffffffffffffffffffffffffffffffffffff167fbada1a1bf129e41a8af5abe00997bd8a8cb1770cb0cf68314eb4b1d6c427139782604051610b429190612566565b60405180910390a25b6000600860006101000a81548173ffffffffffffffffffffffffffffffffffffffff021916908373ffffffffffffffffffffffffffffffffffffffff16021790555050505050610b99612458565b50565b610ba4612379565b60006002811115610bb857610bb7612581565b5b600f60009054906101000a900460ff166002811115610bda57610bd9612581565b5b14610c1a576040517f08c379a0000000000000000000000000000000000000000000000000000000008152600401610c11906128be565b60405180910390fd5b6007544210610c5e576040517f08c379a0000000000000000000000000000000000000000000000000000000008152600401610c559061292a565b60405180910390fd5b600073ffffffffffffffffffffffffffffffffffffffff168173ffffffffffffffffffffffffffffffffffffffff1603610ccd576040517f08c379a0000000000000000000000000000000000000000000000000000000008152600401610cc490612d2f565b60405180910390fd5b60008211610d10576040517f08c379a0000000000000000000000000000000000000000000000000000000008152600401610d0790612d9b565b60405180910390fd5b600073610178dA211FEF7D417bC0e6FeD39F05609AD78863f7655ab484601060008673ffffffffffffffffffffffffffffffffffffffff1673ffffffffffffffffffffffffffffffffffffffff16815260200190815260200160002060009054906101000a900473ffffffffffffffffffffffffffffffffffffffff166040518363ffffffff1660e01b8152600401610daa929190612a40565b602060405180830381865af4158015610dc7573d6000803e3d6000fd5b505050506040513d601f19601f82011682018060405250810190610deb9190612a7e565b9050600060055403610ed95773610178dA211FEF7D417bC0e6FeD39F05609AD78863f7655ab4600454601060008073ffffffffffffffffffffffffffffffffffffffff1673ffffffffffffffffffffffffffffffffffffffff16815260200190815260200160002060009054906101000a900473ffffffffffffffffffffffffffffffffffffffff166040518363ffffffff1660e01b8152600401610e91929190612a40565b602060405180830381865af4158015610eae573d6000803e3d6000fd5b505050506040513d601f19601f82011682018060405250810190610ed29190612a7e565b6005819055505b6005548111610f1d576040517f08c379a0000000000000000000000000000000000000000000000000000000008152600401610f1490612a02565b60405180910390fd5b600d548111610f61576040517f08c379a0000000000000000000000000000000000000000000000000000000008152600401610f5890612e07565b60405180910390fd5b6000600b60009054906101000a900473ffffffffffffffffffffffffffffffffffffffff1690506000600c54905060008490508073ffffffffffffffffffffffffffffffffffffffff166323b872dd3330896040518463ffffffff1660e01b8152600401610fd193929190612e27565b6020604051808303816000875af1158015610ff0573d6000803e3d6000fd5b505050506040513d601f19601f820116820180604052508101906110149190612cb6565b611053576040517f08c379a000000000000000000000000000000000000000000000000000000000815260040161104a90612eaa565b60405180910390fd5b33600b60006101000a81548173ffffffffffffffffffffffffffffffffffffffff021916908373ffffffffffffffffffffffffffffffffffffffff16021790555085600c8190555083600d8190555085600e60003373ffffffffffffffffffffffffffffffffffffffff1673ffffffffffffffffffffffffffffffffffffffff16815260200190815260200160002060008282546110f19190612b46565b925050819055503373ffffffffffffffffffffffffffffffffffffffff167fdf8644c0a4c21ed214ce69f395675b3a5fcd1039083daea5058898de40ea31498786604051611140929190612b7a565b60405180910390a26000600c541180156111875750600073ffffffffffffffffffffffffffffffffffffffff168373ffffffffffffffffffffffffffffffffffffffff1614155b1561138557600073ffffffffffffffffffffffffffffffffffffffff16600860009054906101000a900473ffffffffffffffffffffffffffffffffffffffff1673ffffffffffffffffffffffffffffffffffffffff16036112945760008373ffffffffffffffffffffffffffffffffffffffff168360405161120890612bd4565b60006040518083038185875af1925050503d8060008114611245576040519150601f19603f3d011682016040523d82523d6000602084013e61124a565b606091505b505090508061128e576040517f08c379a000000000000000000000000000000000000000000000000000000000815260040161128590612c35565b60405180910390fd5b50611336565b600860009054906101000a900473ffffffffffffffffffffffffffffffffffffffff1673ffffffffffffffffffffffffffffffffffffffff1663a9059cbb84846040518363ffffffff1660e01b81526004016112f1929190612c55565b6020604051808303816000875af1158015611310573d6000803e3d6000fd5b505050506040513d601f19601f820116820180604052508101906113349190612cb6565b505b8273ffffffffffffffffffffffffffffffffffffffff167fbada1a1bf129e41a8af5abe00997bd8a8cb1770cb0cf68314eb4b1d6c42713978360405161137c9190612566565b60405180910390a25b84600860006101000a81548173ffffffffffffffffffffffffffffffffffffffff021916908373ffffffffffffffffffffffffffffffffffffffff160217905550505050506113d2612458565b5050565b600e6020528060005260406000206000915090505481565b600960009054906101000a900473ffffffffffffffffffffffffffffffffffffffff1673ffffffffffffffffffffffffffffffffffffffff163373ffffffffffffffffffffffffffffffffffffffff161461147e576040517f08c379a000000000000000000000000000000000000000000000000000000000815260040161147590612f16565b60405180910390fd5b600073ffffffffffffffffffffffffffffffffffffffff168173ffffffffffffffffffffffffffffffffffffffff16036114ed576040517f08c379a00000000000000000000000000000000000000000000000000000000081526004016114e490612f82565b60405180910390fd5b80601060008473ffffffffffffffffffffffffffffffffffffffff1673ffffffffffffffffffffffffffffffffffffffff16815260200190815260200160002060006101000a81548173ffffffffffffffffffffffffffffffffffffffff021916908373ffffffffffffffffffffffffffffffffffffffff1602179055505050565b60065481565b600d5481565b600b60009054906101000a900473ffffffffffffffffffffffffffffffffffffffff1681565b60106020528060005260406000206000915054906101000a900473ffffffffffffffffffffffffffffffffffffffff1681565b60055481565b600960009054906101000a900473ffffffffffffffffffffffffffffffffffffffff1681565b600a60009054906101000a900473ffffffffffffffffffffffffffffffffffffffff1681565b600260009054906101000a900473ffffffffffffffffffffffffffffffffffffffff1681565b600c5481565b60045481565b6000611662612462565b905060008160000160089054906101000a900460ff1615905060008260000160009054906101000a900467ffffffffffffffff1690506000808267ffffffffffffffff161480156116b05750825b9050600060018367ffffffffffffffff161480156116e5575060003073ffffffffffffffffffffffffffffffffffffffff163b145b9050811580156116f3575080155b1561172a576040517ff92ee8a900000000000000000000000000000000000000000000000000000000815260040160405180910390fd5b60018560000160006101000a81548167ffffffffffffffff021916908367ffffffffffffffff160217905550831561177a5760018560000160086101000a81548160ff0219169083151502179055505b600073ffffffffffffffffffffffffffffffffffffffff168e73ffffffffffffffffffffffffffffffffffffffff16036117e9576040517f08c379a00000000000000000000000000000000000000000000000000000000081526004016117e090612fee565b60405180910390fd5b600073ffffffffffffffffffffffffffffffffffffffff168d73ffffffffffffffffffffffffffffffffffffffff1603611858576040517f08c379a000000000000000000000000000000000000000000000000000000000815260040161184f9061305a565b60405180910390fd5b60008b1161189b576040517f08c379a0000000000000000000000000000000000000000000000000000000008152600401611892906130c6565b60405180910390fd5b8989116118dd576040517f08c379a00000000000000000000000000000000000000000000000000000000081526004016118d490613132565b60405180910390fd5b600073ffffffffffffffffffffffffffffffffffffffff168773ffffffffffffffffffffffffffffffffffffffff160361194c576040517f08c379a00000000000000000000000000000000000000000000000000000000081526004016119439061319e565b60405180910390fd5b600073ffffffffffffffffffffffffffffffffffffffff168673ffffffffffffffffffffffffffffffffffffffff16036119bb576040517f08c379a00000000000000000000000000000000000000000000000000000000081526004016119b29061320a565b60405180910390fd5b8d600160006101000a81548173ffffffffffffffffffffffffffffffffffffffff021916908373ffffffffffffffffffffffffffffffffffffffff1602179055508c600260006101000a81548173ffffffffffffffffffffffffffffffffffffffff021916908373ffffffffffffffffffffffffffffffffffffffff1602179055508b6003819055508a600481905550896006819055508860078190555087600860006101000a81548173ffffffffffffffffffffffffffffffffffffffff021916908373ffffffffffffffffffffffffffffffffffffffff16021790555086600a60006101000a81548173ffffffffffffffffffffffffffffffffffffffff021916908373ffffffffffffffffffffffffffffffffffffffff16021790555085600960006101000a81548173ffffffffffffffffffffffffffffffffffffffff021916908373ffffffffffffffffffffffffffffffffffffffff1602179055506000600f60006101000a81548160ff02191690836002811115611b4257611b41612581565b5b02179055508315611ba35760008560000160086101000a81548160ff0219169083151502179055507fc7f505b2f371ae2175ee4913f4499e1f2633a7b5936321eed1cdaeb6115181d26001604051611b9a9190613279565b60405180910390a15b5050505050505050505050505050565b611bbb612379565b60006002811115611bcf57611bce612581565b5b600f60009054906101000a900460ff166002811115611bf157611bf0612581565b5b14611c31576040517f08c379a0000000000000000000000000000000000000000000000000000000008152600401611c28906128be565b60405180910390fd5b6007544211611c75576040517f08c379a0000000000000000000000000000000000000000000000000000000008152600401611c6c906132e0565b60405180910390fd5b6001600f60006101000a81548160ff02191690836002811115611c9b57611c9a612581565b5b0217905550600073ffffffffffffffffffffffffffffffffffffffff16600b60009054906101000a900473ffffffffffffffffffffffffffffffffffffffff1673ffffffffffffffffffffffffffffffffffffffff161461224757600080600a60009054906101000a900473ffffffffffffffffffffffffffffffffffffffff1673ffffffffffffffffffffffffffffffffffffffff166399a5d747600c546040518263ffffffff1660e01b8152600401611d569190612566565b6040805180830381865afa158015611d72573d6000803e3d6000fd5b505050506040513d601f19601f82011682018060405250810190611d969190613315565b91509150600061271083600c54611dad9190613355565b611db791906133c6565b9050600081600c54611dc991906133f7565b9050600260009054906101000a900473ffffffffffffffffffffffffffffffffffffffff1673ffffffffffffffffffffffffffffffffffffffff166342842e0e600160009054906101000a900473ffffffffffffffffffffffffffffffffffffffff16600b60009054906101000a900473ffffffffffffffffffffffffffffffffffffffff166003546040518463ffffffff1660e01b8152600401611e7093929190612e27565b600060405180830381600087803b158015611e8a57600080fd5b505af1158015611e9e573d6000803e3d6000fd5b50505050600073ffffffffffffffffffffffffffffffffffffffff16600860009054906101000a900473ffffffffffffffffffffffffffffffffffffffff1673ffffffffffffffffffffffffffffffffffffffff1603612079576000600160009054906101000a900473ffffffffffffffffffffffffffffffffffffffff1673ffffffffffffffffffffffffffffffffffffffff1682604051611f4090612bd4565b60006040518083038185875af1925050503d8060008114611f7d576040519150601f19603f3d011682016040523d82523d6000602084013e611f82565b606091505b5050905080611fc6576040517f08c379a0000000000000000000000000000000000000000000000000000000008152600401611fbd90613477565b60405180910390fd5b60008473ffffffffffffffffffffffffffffffffffffffff1684604051611fec90612bd4565b60006040518083038185875af1925050503d8060008114612029576040519150601f19603f3d011682016040523d82523d6000602084013e61202e565b606091505b5050905080612072576040517f08c379a0000000000000000000000000000000000000000000000000000000008152600401612069906134e3565b60405180910390fd5b505061223e565b6000600860009054906101000a900473ffffffffffffffffffffffffffffffffffffffff1690508073ffffffffffffffffffffffffffffffffffffffff1663a9059cbb600160009054906101000a900473ffffffffffffffffffffffffffffffffffffffff16846040518363ffffffff1660e01b81526004016120fd929190612c55565b6020604051808303816000875af115801561211c573d6000803e3d6000fd5b505050506040513d601f19601f820116820180604052508101906121409190612cb6565b61217f576040517f08c379a000000000000000000000000000000000000000000000000000000000815260040161217690613477565b60405180910390fd5b8073ffffffffffffffffffffffffffffffffffffffff1663a9059cbb85856040518363ffffffff1660e01b81526004016121ba929190612c55565b6020604051808303816000875af11580156121d9573d6000803e3d6000fd5b505050506040513d601f19601f820116820180604052508101906121fd9190612cb6565b61223c576040517f08c379a0000000000000000000000000000000000000000000000000000000008152600401612233906134e3565b60405180910390fd5b505b505050506122fd565b600260009054906101000a900473ffffffffffffffffffffffffffffffffffffffff1673ffffffffffffffffffffffffffffffffffffffff166323b872dd30600160009054906101000a900473ffffffffffffffffffffffffffffffffffffffff166003546040518463ffffffff1660e01b81526004016122ca93929190612e27565b600060405180830381600087803b1580156122e457600080fd5b505af11580156122f8573d6000803e3d6000fd5b505050505b600b60009054906101000a900473ffffffffffffffffffffffffffffffffffffffff1673ffffffffffffffffffffffffffffffffffffffff167fdaec4582d5d9595688c8c98545fdd1c696d41c6aeaeb636737e84ed2f5c00eda600c546040516123679190612566565b60405180910390a2612377612458565b565b6002600054036123b5576040517f3ee5aeb500000000000000000000000000000000000000000000000000000000815260040160405180910390fd5b6002600081905550565b612455816040516024016123d39190612566565b6040516020818303038152906040527ff82c50f1000000000000000000000000000000000000000000000000000000007bffffffffffffffffffffffffffffffffffffffffffffffffffffffff19166020820180517bffffffffffffffffffffffffffffffffffffffffffffffffffffffff8381831617835250505050612476565b50565b6001600081905550565b60008061246d612490565b90508091505090565b61248d816124856124bb6124dc565b63ffffffff16565b50565b60007ff0c57e16840df040f15088dc2f81fe391c3923bec73e23a9662efc9c229c6a0060001b905090565b60006a636f6e736f6c652e6c6f679050600080835160208501845afa505050565b6124e7819050919050565b6124ef613503565b565b600073ffffffffffffffffffffffffffffffffffffffff82169050919050565b600061251c826124f1565b9050919050565b61252c81612511565b82525050565b60006020820190506125476000830184612523565b92915050565b6000819050919050565b6125608161254d565b82525050565b600060208201905061257b6000830184612557565b92915050565b7f4e487b7100000000000000000000000000000000000000000000000000000000600052602160045260246000fd5b600381106125c1576125c0612581565b5b50565b60008190506125d2826125b0565b919050565b60006125e2826125c4565b9050919050565b6125f2816125d7565b82525050565b600060208201905061260d60008301846125e9565b92915050565b600080fd5b61262181612511565b811461262c57600080fd5b50565b60008135905061263e81612618565b92915050565b60006020828403121561265a57612659612613565b5b60006126688482850161262f565b91505092915050565b61267a8161254d565b811461268557600080fd5b50565b60008135905061269781612671565b92915050565b600080604083850312156126b4576126b3612613565b5b60006126c285828601612688565b92505060206126d38582860161262f565b9150509250929050565b600080604083850312156126f4576126f3612613565b5b60006127028582860161262f565b92505060206127138582860161262f565b9150509250929050565b6000819050919050565b600061274261273d612738846124f1565b61271d565b6124f1565b9050919050565b600061275482612727565b9050919050565b600061276682612749565b9050919050565b6127768161275b565b82525050565b6000602082019050612791600083018461276d565b92915050565b60008060008060008060008060006101208a8c0312156127ba576127b9612613565b5b60006127c88c828d0161262f565b99505060206127d98c828d0161262f565b98505060406127ea8c828d01612688565b97505060606127fb8c828d01612688565b965050608061280c8c828d01612688565b95505060a061281d8c828d01612688565b94505060c061282e8c828d0161262f565b93505060e061283f8c828d0161262f565b9250506101006128518c828d0161262f565b9150509295985092959850929598565b600082825260208201905092915050565b7f41756374696f6e206e6f74206163746976650000000000000000000000000000600082015250565b60006128a8601283612861565b91506128b382612872565b602082019050919050565b600060208201905081810360008301526128d78161289b565b9050919050565b7f41756374696f6e20656e64656400000000000000000000000000000000000000600082015250565b6000612914600d83612861565b915061291f826128de565b602082019050919050565b6000602082019050818103600083015261294381612907565b9050919050565b7f5061796d656e7420746f6b656e206973206e6f74204554480000000000000000600082015250565b6000612980601883612861565b915061298b8261294a565b602082019050919050565b600060208201905081810360008301526129af81612973565b9050919050565b7f4269642062656c6f772073746172742070726963650000000000000000000000600082015250565b60006129ec601583612861565b91506129f7826129b6565b602082019050919050565b60006020820190508181036000830152612a1b816129df565b9050919050565b612a2b8161254d565b82525050565b612a3a81612511565b82525050565b6000604082019050612a556000830185612a22565b612a626020830184612a31565b9392505050565b600081519050612a7881612671565b92915050565b600060208284031215612a9457612a93612613565b5b6000612aa284828501612a69565b91505092915050565b7f42696420746f6f206c6f77000000000000000000000000000000000000000000600082015250565b6000612ae1600b83612861565b9150612aec82612aab565b602082019050919050565b60006020820190508181036000830152612b1081612ad4565b9050919050565b7f4e487b7100000000000000000000000000000000000000000000000000000000600052601160045260246000fd5b6000612b518261254d565b9150612b5c8361254d565b9250828201905080821115612b7457612b73612b17565b5b92915050565b6000604082019050612b8f6000830185612557565b612b9c6020830184612557565b9392505050565b600081905092915050565b50565b6000612bbe600083612ba3565b9150612bc982612bae565b600082019050919050565b6000612bdf82612bb1565b9150819050919050565b7f526566756e64206661696c656400000000000000000000000000000000000000600082015250565b6000612c1f600d83612861565b9150612c2a82612be9565b602082019050919050565b60006020820190508181036000830152612c4e81612c12565b9050919050565b6000604082019050612c6a6000830185612523565b612c776020830184612557565b9392505050565b60008115159050919050565b612c9381612c7e565b8114612c9e57600080fd5b50565b600081519050612cb081612c8a565b92915050565b600060208284031215612ccc57612ccb612613565b5b6000612cda84828501612ca1565b91505092915050565b7f5061796d656e7420746f6b656e20697320455448000000000000000000000000600082015250565b6000612d19601483612861565b9150612d2482612ce3565b602082019050919050565b60006020820190508181036000830152612d4881612d0c565b9050919050565b7f416d6f756e74206d75737420626520706f736974697665000000000000000000600082015250565b6000612d85601783612861565b9150612d9082612d4f565b602082019050919050565b60006020820190508181036000830152612db481612d78565b9050919050565b7f42696420746f6f206c6f7720696e205553440000000000000000000000000000600082015250565b6000612df1601283612861565b9150612dfc82612dbb565b602082019050919050565b60006020820190508181036000830152612e2081612de4565b9050919050565b6000606082019050612e3c6000830186612523565b612e496020830185612523565b612e566040830184612557565b949350505050565b7f5472616e73666572206661696c65640000000000000000000000000000000000600082015250565b6000612e94600f83612861565b9150612e9f82612e5e565b602082019050919050565b60006020820190508181036000830152612ec381612e87565b9050919050565b7f4f6e6c7920666163746f72790000000000000000000000000000000000000000600082015250565b6000612f00600c83612861565b9150612f0b82612eca565b602082019050919050565b60006020820190508181036000830152612f2f81612ef3565b9050919050565b7f496e76616c696420666565640000000000000000000000000000000000000000600082015250565b6000612f6c600c83612861565b9150612f7782612f36565b602082019050919050565b60006020820190508181036000830152612f9b81612f5f565b9050919050565b7f496e76616c69642073656c6c6572000000000000000000000000000000000000600082015250565b6000612fd8600e83612861565b9150612fe382612fa2565b602082019050919050565b6000602082019050818103600083015261300781612fcb565b9050919050565b7f496e76616c6964204e465420636f6e7472616374000000000000000000000000600082015250565b6000613044601483612861565b915061304f8261300e565b602082019050919050565b6000602082019050818103600083015261307381613037565b9050919050565b7f496e76616c696420737461727420707269636500000000000000000000000000600082015250565b60006130b0601383612861565b91506130bb8261307a565b602082019050919050565b600060208201905081810360008301526130df816130a3565b9050919050565b7f496e76616c696420656e642074696d6500000000000000000000000000000000600082015250565b600061311c601083612861565b9150613127826130e6565b602082019050919050565b6000602082019050818103600083015261314b8161310f565b9050919050565b7f496e76616c696420666565206d616e6167657200000000000000000000000000600082015250565b6000613188601383612861565b915061319382613152565b602082019050919050565b600060208201905081810360008301526131b78161317b565b9050919050565b7f496e76616c696420666163746f72790000000000000000000000000000000000600082015250565b60006131f4600f83612861565b91506131ff826131be565b602082019050919050565b60006020820190508181036000830152613223816131e7565b9050919050565b6000819050919050565b600067ffffffffffffffff82169050919050565b600061326361325e6132598461322a565b61271d565b613234565b9050919050565b61327381613248565b82525050565b600060208201905061328e600083018461326a565b92915050565b7f41756374696f6e206e6f7420656e646564000000000000000000000000000000600082015250565b60006132ca601183612861565b91506132d582613294565b602082019050919050565b600060208201905081810360008301526132f9816132bd565b9050919050565b60008151905061330f81612618565b92915050565b6000806040838503121561332c5761332b612613565b5b600061333a85828601612a69565b925050602061334b85828601613300565b9150509250929050565b60006133608261254d565b915061336b8361254d565b92508282026133798161254d565b915082820484148315176133905761338f612b17565b5b5092915050565b7f4e487b7100000000000000000000000000000000000000000000000000000000600052601260045260246000fd5b60006133d18261254d565b91506133dc8361254d565b9250826133ec576133eb613397565b5b828204905092915050565b60006134028261254d565b915061340d8361254d565b925082820390508181111561342557613424612b17565b5b92915050565b7f5061796d656e7420746f2073656c6c6572206661696c65640000000000000000600082015250565b6000613461601883612861565b915061346c8261342b565b602082019050919050565b6000602082019050818103600083015261349081613454565b9050919050565b7f5061796d656e7420746f20666565207265636569766572206661696c65640000600082015250565b60006134cd601e83612861565b91506134d882613497565b602082019050919050565b600060208201905081810360008301526134fc816134c0565b9050919050565b7f4e487b7100000000000000000000000000000000000000000000000000000000600052605160045260246000fdfea26469706673582212203edf9bab79a6f705caac225f8d57217b5d9dc81b8374b88ed95fe90618049f0c64736f6c634300081b0033",
  "deployedBytecode": "0x60806040526004361061012e5760003560e01c80637fde841d116100ab578063d0fb02031161006f578063d0fb0203146103d0578063d56d229d146103fb578063d57bde7914610426578063f1a9af8914610451578063fce225281461047c578063fe67a54b146104a557610135565b80637fde841d146102e757806391f90157146103125780639dcb511a1461033d578063af6287641461037a578063c45a0155146103a557610135565b806335abc8bd116100f257806335abc8bd14610211578063489f9c881461022d57806362ea82db1461025657806376e112861461029357806378e97925146102bc57610135565b806308551a531461013a57806317d70f7c14610165578063200d2ed2146101905780633013ce29146101bb5780633197cbb6146101e657610135565b3661013557005b600080fd5b34801561014657600080fd5b5061014f6104bc565b60405161015c9190612532565b60405180910390f35b34801561017157600080fd5b5061017a6104e2565b6040516101879190612566565b60405180910390f35b34801561019c57600080fd5b506101a56104e8565b6040516101b291906125f8565b60405180910390f35b3480156101c757600080fd5b506101d06104fb565b6040516101dd9190612532565b60405180910390f35b3480156101f257600080fd5b506101fb610521565b6040516102089190612566565b60405180910390f35b61022b60048036038101906102269190612644565b610527565b005b34801561023957600080fd5b50610254600480360381019061024f919061269d565b610b9c565b005b34801561026257600080fd5b5061027d60048036038101906102789190612644565b6113d6565b60405161028a9190612566565b60405180910390f35b34801561029f57600080fd5b506102ba60048036038101906102b591906126dd565b6113ee565b005b3480156102c857600080fd5b506102d161156f565b6040516102de9190612566565b60405180910390f35b3480156102f357600080fd5b506102fc611575565b6040516103099190612566565b60405180910390f35b34801561031e57600080fd5b5061032761157b565b6040516103349190612532565b60405180910390f35b34801561034957600080fd5b50610364600480360381019061035f9190612644565b6115a1565b6040516103719190612532565b60405180910390f35b34801561038657600080fd5b5061038f6115d4565b60405161039c9190612566565b60405180910390f35b3480156103b157600080fd5b506103ba6115da565b6040516103c79190612532565b60405180910390f35b3480156103dc57600080fd5b506103e5611600565b6040516103f2919061277c565b60405180910390f35b34801561040757600080fd5b50610410611626565b60405161041d9190612532565b60405180910390f35b34801561043257600080fd5b5061043b61164c565b6040516104489190612566565b60405180910390f35b34801561045d57600080fd5b50610466611652565b6040516104739190612566565b60405180910390f35b34801561048857600080fd5b506104a3600480360381019061049e9190612797565b611658565b005b3480156104b157600080fd5b506104ba611bb3565b005b600160009054906101000a900473ffffffffffffffffffffffffffffffffffffffff1681565b60035481565b600f60009054906101000a900460ff1681565b600860009054906101000a900473ffffffffffffffffffffffffffffffffffffffff1681565b60075481565b61052f612379565b6000600281111561054357610542612581565b5b600f60009054906101000a900460ff16600281111561056557610564612581565b5b146105a5576040517f08c379a000000000000000000000000000000000000000000000000000000000815260040161059c906128be565b60405180910390fd5b60075442106105e9576040517f08c379a00000000000000000000000000000000000000000000000000000000081526004016105e09061292a565b60405180910390fd5b600073ffffffffffffffffffffffffffffffffffffffff168173ffffffffffffffffffffffffffffffffffffffff1614610658576040517f08c379a000000000000000000000000000000000000000000000000000000000815260040161064f90612996565b60405180910390fd5b60003490506004548110156106a2576040517f08c379a000000000000000000000000000000000000000000000000000000000815260040161069990612a02565b60405180910390fd5b600073__$970d497a1df28a900e3dd97e15a13b1bae$__63f7655ab483601060008073ffffffffffffffffffffffffffffffffffffffff1673ffffffffffffffffffffffffffffffffffffffff16815260200190815260200160002060009054906101000a900473ffffffffffffffffffffffffffffffffffffffff166040518363ffffffff1660e01b815260040161073c929190612a40565b602060405180830381865af4158015610759573d6000803e3d6000fd5b505050506040513d601f19601f8201168201806040525081019061077d9190612a7e565b9050600d5481116107c3576040517f08c379a00000000000000000000000000000000000000000000000000000000081526004016107ba90612af7565b60405180910390fd5b6107cd60046123bf565b6000600b60009054906101000a900473ffffffffffffffffffffffffffffffffffffffff1690506000600c54905061080560056123bf565b33600b60006101000a81548173ffffffffffffffffffffffffffffffffffffffff021916908373ffffffffffffffffffffffffffffffffffffffff16021790555083600c8190555082600d8190555083600e60003373ffffffffffffffffffffffffffffffffffffffff1673ffffffffffffffffffffffffffffffffffffffff16815260200190815260200160002060008282546108a39190612b46565b925050819055506108b460066123bf565b3373ffffffffffffffffffffffffffffffffffffffff167fdf8644c0a4c21ed214ce69f395675b3a5fcd1039083daea5058898de40ea314985856040516108fc929190612b7a565b60405180910390a261090e60076123bf565b6000600c5411801561094d5750600073ffffffffffffffffffffffffffffffffffffffff168273ffffffffffffffffffffffffffffffffffffffff1614155b15610b4b57600073ffffffffffffffffffffffffffffffffffffffff16600860009054906101000a900473ffffffffffffffffffffffffffffffffffffffff1673ffffffffffffffffffffffffffffffffffffffff1603610a5a5760008273ffffffffffffffffffffffffffffffffffffffff16826040516109ce90612bd4565b60006040518083038185875af1925050503d8060008114610a0b576040519150601f19603f3d011682016040523d82523d6000602084013e610a10565b606091505b5050905080610a54576040517f08c379a0000000000000000000000000000000000000000000000000000000008152600401610a4b90612c35565b60405180910390fd5b50610afc565b600860009054906101000a900473ffffffffffffffffffffffffffffffffffffffff1673ffffffffffffffffffffffffffffffffffffffff1663a9059cbb83836040518363ffffffff1660e01b8152600401610ab7929190612c55565b6020604051808303816000875af1158015610ad6573d6000803e3d6000fd5b505050506040513d601f19601f82011682018060405250810190610afa9190612cb6565b505b8173ffffffffffffffffffffffffffffffffffffffff167fbada1a1bf129e41a8af5abe00997bd8a8cb1770cb0cf68314eb4b1d6c427139782604051610b429190612566565b60405180910390a25b6000600860006101000a81548173ffffffffffffffffffffffffffffffffffffffff021916908373ffffffffffffffffffffffffffffffffffffffff16021790555050505050610b99612458565b50565b610ba4612379565b60006002811115610bb857610bb7612581565b5b600f60009054906101000a900460ff166002811115610bda57610bd9612581565b5b14610c1a576040517f08c379a0000000000000000000000000000000000000000000000000000000008152600401610c11906128be565b60405180910390fd5b6007544210610c5e576040517f08c379a0000000000000000000000000000000000000000000000000000000008152600401610c559061292a565b60405180910390fd5b600073ffffffffffffffffffffffffffffffffffffffff168173ffffffffffffffffffffffffffffffffffffffff1603610ccd576040517f08c379a0000000000000000000000000000000000000000000000000000000008152600401610cc490612d2f565b60405180910390fd5b60008211610d10576040517f08c379a0000000000000000000000000000000000000000000000000000000008152600401610d0790612d9b565b60405180910390fd5b600073__$970d497a1df28a900e3dd97e15a13b1bae$__63f7655ab484601060008673ffffffffffffffffffffffffffffffffffffffff1673ffffffffffffffffffffffffffffffffffffffff16815260200190815260200160002060009054906101000a900473ffffffffffffffffffffffffffffffffffffffff166040518363ffffffff1660e01b8152600401610daa929190612a40565b602060405180830381865af4158015610dc7573d6000803e3d6000fd5b505050506040513d601f19601f82011682018060405250810190610deb9190612a7e565b9050600060055403610ed95773__$970d497a1df28a900e3dd97e15a13b1bae$__63f7655ab4600454601060008073ffffffffffffffffffffffffffffffffffffffff1673ffffffffffffffffffffffffffffffffffffffff16815260200190815260200160002060009054906101000a900473ffffffffffffffffffffffffffffffffffffffff166040518363ffffffff1660e01b8152600401610e91929190612a40565b602060405180830381865af4158015610eae573d6000803e3d6000fd5b505050506040513d601f19601f82011682018060405250810190610ed29190612a7e565b6005819055505b6005548111610f1d576040517f08c379a0000000000000000000000000000000000000000000000000000000008152600401610f1490612a02565b60405180910390fd5b600d548111610f61576040517f08c379a0000000000000000000000000000000000000000000000000000000008152600401610f5890612e07565b60405180910390fd5b6000600b60009054906101000a900473ffffffffffffffffffffffffffffffffffffffff1690506000600c54905060008490508073ffffffffffffffffffffffffffffffffffffffff166323b872dd3330896040518463ffffffff1660e01b8152600401610fd193929190612e27565b6020604051808303816000875af1158015610ff0573d6000803e3d6000fd5b505050506040513d601f19601f820116820180604052508101906110149190612cb6565b611053576040517f08c379a000000000000000000000000000000000000000000000000000000000815260040161104a90612eaa565b60405180910390fd5b33600b60006101000a81548173ffffffffffffffffffffffffffffffffffffffff021916908373ffffffffffffffffffffffffffffffffffffffff16021790555085600c8190555083600d8190555085600e60003373ffffffffffffffffffffffffffffffffffffffff1673ffffffffffffffffffffffffffffffffffffffff16815260200190815260200160002060008282546110f19190612b46565b925050819055503373ffffffffffffffffffffffffffffffffffffffff167fdf8644c0a4c21ed214ce69f395675b3a5fcd1039083daea5058898de40ea31498786604051611140929190612b7a565b60405180910390a26000600c541180156111875750600073ffffffffffffffffffffffffffffffffffffffff168373ffffffffffffffffffffffffffffffffffffffff1614155b1561138557600073ffffffffffffffffffffffffffffffffffffffff16600860009054906101000a900473ffffffffffffffffffffffffffffffffffffffff1673ffffffffffffffffffffffffffffffffffffffff16036112945760008373ffffffffffffffffffffffffffffffffffffffff168360405161120890612bd4565b60006040518083038185875af1925050503d8060008114611245576040519150601f19603f3d011682016040523d82523d6000602084013e61124a565b606091505b505090508061128e576040517f08c379a000000000000000000000000000000000000000000000000000000000815260040161128590612c35565b60405180910390fd5b50611336565b600860009054906101000a900473ffffffffffffffffffffffffffffffffffffffff1673ffffffffffffffffffffffffffffffffffffffff1663a9059cbb84846040518363ffffffff1660e01b81526004016112f1929190612c55565b6020604051808303816000875af1158015611310573d6000803e3d6000fd5b505050506040513d601f19601f820116820180604052508101906113349190612cb6565b505b8273ffffffffffffffffffffffffffffffffffffffff167fbada1a1bf129e41a8af5abe00997bd8a8cb1770cb0cf68314eb4b1d6c42713978360405161137c9190612566565b60405180910390a25b84600860006101000a81548173ffffffffffffffffffffffffffffffffffffffff021916908373ffffffffffffffffffffffffffffffffffffffff160217905550505050506113d2612458565b5050565b600e6020528060005260406000206000915090505481565b600960009054906101000a900473ffffffffffffffffffffffffffffffffffffffff1673ffffffffffffffffffffffffffffffffffffffff163373ffffffffffffffffffffffffffffffffffffffff161461147e576040517f08c379a000000000000000000000000000000000000000000000000000000000815260040161147590612f16565b60405180910390fd5b600073ffffffffffffffffffffffffffffffffffffffff168173ffffffffffffffffffffffffffffffffffffffff16036114ed576040517f08c379a00000000000000000000000000000000000000000000000000000000081526004016114e490612f82565b60405180910390fd5b80601060008473ffffffffffffffffffffffffffffffffffffffff1673ffffffffffffffffffffffffffffffffffffffff16815260200190815260200160002060006101000a81548173ffffffffffffffffffffffffffffffffffffffff021916908373ffffffffffffffffffffffffffffffffffffffff1602179055505050565b60065481565b600d5481565b600b60009054906101000a900473ffffffffffffffffffffffffffffffffffffffff1681565b60106020528060005260406000206000915054906101000a900473ffffffffffffffffffffffffffffffffffffffff1681565b60055481565b600960009054906101000a900473ffffffffffffffffffffffffffffffffffffffff1681565b600a60009054906101000a900473ffffffffffffffffffffffffffffffffffffffff1681565b600260009054906101000a900473ffffffffffffffffffffffffffffffffffffffff1681565b600c5481565b60045481565b6000611662612462565b905060008160000160089054906101000a900460ff1615905060008260000160009054906101000a900467ffffffffffffffff1690506000808267ffffffffffffffff161480156116b05750825b9050600060018367ffffffffffffffff161480156116e5575060003073ffffffffffffffffffffffffffffffffffffffff163b145b9050811580156116f3575080155b1561172a576040517ff92ee8a900000000000000000000000000000000000000000000000000000000815260040160405180910390fd5b60018560000160006101000a81548167ffffffffffffffff021916908367ffffffffffffffff160217905550831561177a5760018560000160086101000a81548160ff0219169083151502179055505b600073ffffffffffffffffffffffffffffffffffffffff168e73ffffffffffffffffffffffffffffffffffffffff16036117e9576040517f08c379a00000000000000000000000000000000000000000000000000000000081526004016117e090612fee565b60405180910390fd5b600073ffffffffffffffffffffffffffffffffffffffff168d73ffffffffffffffffffffffffffffffffffffffff1603611858576040517f08c379a000000000000000000000000000000000000000000000000000000000815260040161184f9061305a565b60405180910390fd5b60008b1161189b576040517f08c379a0000000000000000000000000000000000000000000000000000000008152600401611892906130c6565b60405180910390fd5b8989116118dd576040517f08c379a00000000000000000000000000000000000000000000000000000000081526004016118d490613132565b60405180910390fd5b600073ffffffffffffffffffffffffffffffffffffffff168773ffffffffffffffffffffffffffffffffffffffff160361194c576040517f08c379a00000000000000000000000000000000000000000000000000000000081526004016119439061319e565b60405180910390fd5b600073ffffffffffffffffffffffffffffffffffffffff168673ffffffffffffffffffffffffffffffffffffffff16036119bb576040517f08c379a00000000000000000000000000000000000000000000000000000000081526004016119b29061320a565b60405180910390fd5b8d600160006101000a81548173ffffffffffffffffffffffffffffffffffffffff021916908373ffffffffffffffffffffffffffffffffffffffff1602179055508c600260006101000a81548173ffffffffffffffffffffffffffffffffffffffff021916908373ffffffffffffffffffffffffffffffffffffffff1602179055508b6003819055508a600481905550896006819055508860078190555087600860006101000a81548173ffffffffffffffffffffffffffffffffffffffff021916908373ffffffffffffffffffffffffffffffffffffffff16021790555086600a60006101000a81548173ffffffffffffffffffffffffffffffffffffffff021916908373ffffffffffffffffffffffffffffffffffffffff16021790555085600960006101000a81548173ffffffffffffffffffffffffffffffffffffffff021916908373ffffffffffffffffffffffffffffffffffffffff1602179055506000600f60006101000a81548160ff02191690836002811115611b4257611b41612581565b5b02179055508315611ba35760008560000160086101000a81548160ff0219169083151502179055507fc7f505b2f371ae2175ee4913f4499e1f2633a7b5936321eed1cdaeb6115181d26001604051611b9a9190613279565b60405180910390a15b5050505050505050505050505050565b611bbb612379565b60006002811115611bcf57611bce612581565b5b600f60009054906101000a900460ff166002811115611bf157611bf0612581565b5b14611c31576040517f08c379a0000000000000000000000000000000000000000000000000000000008152600401611c28906128be565b60405180910390fd5b6007544211611c75576040517f08c379a0000000000000000000000000000000000000000000000000000000008152600401611c6c906132e0565b60405180910390fd5b6001600f60006101000a81548160ff02191690836002811115611c9b57611c9a612581565b5b0217905550600073ffffffffffffffffffffffffffffffffffffffff16600b60009054906101000a900473ffffffffffffffffffffffffffffffffffffffff1673ffffffffffffffffffffffffffffffffffffffff161461224757600080600a60009054906101000a900473ffffffffffffffffffffffffffffffffffffffff1673ffffffffffffffffffffffffffffffffffffffff166399a5d747600c546040518263ffffffff1660e01b8152600401611d569190612566565b6040805180830381865afa158015611d72573d6000803e3d6000fd5b505050506040513d601f19601f82011682018060405250810190611d969190613315565b91509150600061271083600c54611dad9190613355565b611db791906133c6565b9050600081600c54611dc991906133f7565b9050600260009054906101000a900473ffffffffffffffffffffffffffffffffffffffff1673ffffffffffffffffffffffffffffffffffffffff166342842e0e600160009054906101000a900473ffffffffffffffffffffffffffffffffffffffff16600b60009054906101000a900473ffffffffffffffffffffffffffffffffffffffff166003546040518463ffffffff1660e01b8152600401611e7093929190612e27565b600060405180830381600087803b158015611e8a57600080fd5b505af1158015611e9e573d6000803e3d6000fd5b50505050600073ffffffffffffffffffffffffffffffffffffffff16600860009054906101000a900473ffffffffffffffffffffffffffffffffffffffff1673ffffffffffffffffffffffffffffffffffffffff1603612079576000600160009054906101000a900473ffffffffffffffffffffffffffffffffffffffff1673ffffffffffffffffffffffffffffffffffffffff1682604051611f4090612bd4565b60006040518083038185875af1925050503d8060008114611f7d576040519150601f19603f3d011682016040523d82523d6000602084013e611f82565b606091505b5050905080611fc6576040517f08c379a0000000000000000000000000000000000000000000000000000000008152600401611fbd90613477565b60405180910390fd5b60008473ffffffffffffffffffffffffffffffffffffffff1684604051611fec90612bd4565b60006040518083038185875af1925050503d8060008114612029576040519150601f19603f3d011682016040523d82523d6000602084013e61202e565b606091505b5050905080612072576040517f08c379a0000000000000000000000000000000000000000000000000000000008152600401612069906134e3565b60405180910390fd5b505061223e565b6000600860009054906101000a900473ffffffffffffffffffffffffffffffffffffffff1690508073ffffffffffffffffffffffffffffffffffffffff1663a9059cbb600160009054906101000a900473ffffffffffffffffffffffffffffffffffffffff16846040518363ffffffff1660e01b81526004016120fd929190612c55565b6020604051808303816000875af115801561211c573d6000803e3d6000fd5b505050506040513d601f19601f820116820180604052508101906121409190612cb6565b61217f576040517f08c379a000000000000000000000000000000000000000000000000000000000815260040161217690613477565b60405180910390fd5b8073ffffffffffffffffffffffffffffffffffffffff1663a9059cbb85856040518363ffffffff1660e01b81526004016121ba929190612c55565b6020604051808303816000875af11580156121d9573d6000803e3d6000fd5b505050506040513d601f19601f820116820180604052508101906121fd9190612cb6565b61223c576040517f08c379a0000000000000000000000000000000000000000000000000000000008152600401612233906134e3565b60405180910390fd5b505b505050506122fd565b600260009054906101000a900473ffffffffffffffffffffffffffffffffffffffff1673ffffffffffffffffffffffffffffffffffffffff166323b872dd30600160009054906101000a900473ffffffffffffffffffffffffffffffffffffffff166003546040518463ffffffff1660e01b81526004016122ca93929190612e27565b600060405180830381600087803b1580156122e457600080fd5b505af11580156122f8573d6000803e3d6000fd5b505050505b600b60009054906101000a900473ffffffffffffffffffffffffffffffffffffffff1673ffffffffffffffffffffffffffffffffffffffff167fdaec4582d5d9595688c8c98545fdd1c696d41c6aeaeb636737e84ed2f5c00eda600c546040516123679190612566565b60405180910390a2612377612458565b565b6002600054036123b5576040517f3ee5aeb500000000000000000000000000000000000000000000000000000000815260040160405180910390fd5b6002600081905550565b612455816040516024016123d39190612566565b6040516020818303038152906040527ff82c50f1000000000000000000000000000000000000000000000000000000007bffffffffffffffffffffffffffffffffffffffffffffffffffffffff19166020820180517bffffffffffffffffffffffffffffffffffffffffffffffffffffffff8381831617835250505050612476565b50565b6001600081905550565b60008061246d612490565b90508091505090565b61248d816124856124bb6124dc565b63ffffffff16565b50565b60007ff0c57e16840df040f15088dc2f81fe391c3923bec73e23a9662efc9c229c6a0060001b905090565b60006a636f6e736f6c652e6c6f679050600080835160208501845afa505050565b6124e7819050919050565b6124ef613503565b565b600073ffffffffffffffffffffffffffffffffffffffff82169050919050565b600061251c826124f1565b9050919050565b61252c81612511565b82525050565b60006020820190506125476000830184612523565b92915050565b6000819050919050565b6125608161254d565b82525050565b600060208201905061257b6000830184612557565b92915050565b7f4e487b7100000000000000000000000000000000000000000000000000000000600052602160045260246000fd5b600381106125c1576125c0612581565b5b50565b60008190506125d2826125b0565b919050565b60006125e2826125c4565b9050919050565b6125f2816125d7565b82525050565b600060208201905061260d60008301846125e9565b92915050565b600080fd5b61262181612511565b811461262c57600080fd5b50565b60008135905061263e81612618565b92915050565b60006020828403121561265a57612659612613565b5b60006126688482850161262f565b91505092915050565b61267a8161254d565b811461268557600080fd5b50565b60008135905061269781612671565b92915050565b600080604083850312156126b4576126b3612613565b5b60006126c285828601612688565b92505060206126d38582860161262f565b9150509250929050565b600080604083850312156126f4576126f3612613565b5b60006127028582860161262f565b92505060206127138582860161262f565b9150509250929050565b6000819050919050565b600061274261273d612738846124f1565b61271d565b6124f1565b9050919050565b600061275482612727565b9050919050565b600061276682612749565b9050919050565b6127768161275b565b82525050565b6000602082019050612791600083018461276d565b92915050565b60008060008060008060008060006101208a8c0312156127ba576127b9612613565b5b60006127c88c828d0161262f565b99505060206127d98c828d0161262f565b98505060406127ea8c828d01612688565b97505060606127fb8c828d01612688565b965050608061280c8c828d01612688565b95505060a061281d8c828d01612688565b94505060c061282e8c828d0161262f565b93505060e061283f8c828d0161262f565b9250506101006128518c828d0161262f565b9150509295985092959850929598565b600082825260208201905092915050565b7f41756374696f6e206e6f74206163746976650000000000000000000000000000600082015250565b60006128a8601283612861565b91506128b382612872565b602082019050919050565b600060208201905081810360008301526128d78161289b565b9050919050565b7f41756374696f6e20656e64656400000000000000000000000000000000000000600082015250565b6000612914600d83612861565b915061291f826128de565b602082019050919050565b6000602082019050818103600083015261294381612907565b9050919050565b7f5061796d656e7420746f6b656e206973206e6f74204554480000000000000000600082015250565b6000612980601883612861565b915061298b8261294a565b602082019050919050565b600060208201905081810360008301526129af81612973565b9050919050565b7f4269642062656c6f772073746172742070726963650000000000000000000000600082015250565b60006129ec601583612861565b91506129f7826129b6565b602082019050919050565b60006020820190508181036000830152612a1b816129df565b9050919050565b612a2b8161254d565b82525050565b612a3a81612511565b82525050565b6000604082019050612a556000830185612a22565b612a626020830184612a31565b9392505050565b600081519050612a7881612671565b92915050565b600060208284031215612a9457612a93612613565b5b6000612aa284828501612a69565b91505092915050565b7f42696420746f6f206c6f77000000000000000000000000000000000000000000600082015250565b6000612ae1600b83612861565b9150612aec82612aab565b602082019050919050565b60006020820190508181036000830152612b1081612ad4565b9050919050565b7f4e487b7100000000000000000000000000000000000000000000000000000000600052601160045260246000fd5b6000612b518261254d565b9150612b5c8361254d565b9250828201905080821115612b7457612b73612b17565b5b92915050565b6000604082019050612b8f6000830185612557565b612b9c6020830184612557565b9392505050565b600081905092915050565b50565b6000612bbe600083612ba3565b9150612bc982612bae565b600082019050919050565b6000612bdf82612bb1565b9150819050919050565b7f526566756e64206661696c656400000000000000000000000000000000000000600082015250565b6000612c1f600d83612861565b9150612c2a82612be9565b602082019050919050565b60006020820190508181036000830152612c4e81612c12565b9050919050565b6000604082019050612c6a6000830185612523565b612c776020830184612557565b9392505050565b60008115159050919050565b612c9381612c7e565b8114612c9e57600080fd5b50565b600081519050612cb081612c8a565b92915050565b600060208284031215612ccc57612ccb612613565b5b6000612cda84828501612ca1565b91505092915050565b7f5061796d656e7420746f6b656e20697320455448000000000000000000000000600082015250565b6000612d19601483612861565b9150612d2482612ce3565b602082019050919050565b60006020820190508181036000830152612d4881612d0c565b9050919050565b7f416d6f756e74206d75737420626520706f736974697665000000000000000000600082015250565b6000612d85601783612861565b9150612d9082612d4f565b602082019050919050565b60006020820190508181036000830152612db481612d78565b9050919050565b7f42696420746f6f206c6f7720696e205553440000000000000000000000000000600082015250565b6000612df1601283612861565b9150612dfc82612dbb565b602082019050919050565b60006020820190508181036000830152612e2081612de4565b9050919050565b6000606082019050612e3c6000830186612523565b612e496020830185612523565b612e566040830184612557565b949350505050565b7f5472616e73666572206661696c65640000000000000000000000000000000000600082015250565b6000612e94600f83612861565b9150612e9f82612e5e565b602082019050919050565b60006020820190508181036000830152612ec381612e87565b9050919050565b7f4f6e6c7920666163746f72790000000000000000000000000000000000000000600082015250565b6000612f00600c83612861565b9150612f0b82612eca565b602082019050919050565b60006020820190508181036000830152612f2f81612ef3565b9050919050565b7f496e76616c696420666565640000000000000000000000000000000000000000600082015250565b6000612f6c600c83612861565b9150612f7782612f36565b602082019050919050565b60006020820190508181036000830152612f9b81612f5f565b9050919050565b7f496e76616c69642073656c6c6572000000000000000000000000000000000000600082015250565b6000612fd8600e83612861565b9150612fe382612fa2565b602082019050919050565b6000602082019050818103600083015261300781612fcb565b9050919050565b7f496e76616c6964204e465420636f6e7472616374000000000000000000000000600082015250565b6000613044601483612861565b915061304f8261300e565b602082019050919050565b6000602082019050818103600083015261307381613037565b9050919050565b7f496e76616c696420737461727420707269636500000000000000000000000000600082015250565b60006130b0601383612861565b91506130bb8261307a565b602082019050919050565b600060208201905081810360008301526130df816130a3565b9050919050565b7f496e76616c696420656e642074696d6500000000000000000000000000000000600082015250565b600061311c601083612861565b9150613127826130e6565b602082019050919050565b6000602082019050818103600083015261314b8161310f565b9050919050565b7f496e76616c696420666565206d616e6167657200000000000000000000000000600082015250565b6000613188601383612861565b915061319382613152565b602082019050919050565b600060208201905081810360008301526131b78161317b565b9050919050565b7f496e76616c696420666163746f72790000000000000000000000000000000000600082015250565b60006131f4600f83612861565b91506131ff826131be565b602082019050919050565b60006020820190508181036000830152613223816131e7565b9050919050565b6000819050919050565b600067ffffffffffffffff82169050919050565b600061326361325e6132598461322a565b61271d565b613234565b9050919050565b61327381613248565b82525050565b600060208201905061328e600083018461326a565b92915050565b7f41756374696f6e206e6f7420656e646564000000000000000000000000000000600082015250565b60006132ca601183612861565b91506132d582613294565b602082019050919050565b600060208201905081810360008301526132f9816132bd565b9050919050565b60008151905061330f81612618565b92915050565b6000806040838503121561332c5761332b612613565b5b600061333a85828601612a69565b925050602061334b85828601613300565b9150509250929050565b60006133608261254d565b915061336b8361254d565b92508282026133798161254d565b915082820484148315176133905761338f612b17565b5b5092915050565b7f4e487b7100000000000000000000000000000000000000000000000000000000600052601260045260246000fd5b60006133d18261254d565b91506133dc8361254d565b9250826133ec576133eb613397565b5b828204905092915050565b60006134028261254d565b915061340d8361254d565b925082820390508181111561342557613424612b17565b5b92915050565b7f5061796d656e7420746f2073656c6c6572206661696c65640000000000000000600082015250565b6000613461601883612861565b915061346c8261342b565b602082019050919050565b6000602082019050818103600083015261349081613454565b9050919050565b7f5061796d656e7420746f20666565207265636569766572206661696c65640000600082015250565b60006134cd601e83612861565b91506134d882613497565b602082019050919050565b600060208201905081810360008301526134fc816134c0565b9050919050565b7f4e487b7100000000000000000000000000000000000000000000000000000000600052605160045260246000fdfea26469706673582212203edf9bab79a6f705caac225f8d57217b5d9dc81b8374b88ed95fe90618049f0c64736f6c634300081b0033",
  "libraries": {
    "PriceConverter": "0x610178dA211FEF7D417bC0e6FeD39F05609AD788"
  },
  "devdoc": {
    "details": "ERC20ETHChainlink  Clones.sol Auction  -  initialize   - ",
    "errors": {
      "InvalidInitialization()": [
        {
          "details": "The contract is already initialized."
        }
      ],
      "NotInitializing()": [
        {
          "details": "The contract is not initializing."
        }
      ],
      "ReentrancyGuardReentrantCall()": [
        {
          "details": "Unauthorized reentrant call."
        }
      ]
    },
    "events": {
      "Initialized(uint64)": {
        "details": "Triggered when the contract has been initialized or reinitialized."
      }
    },
    "kind": "dev",
    "methods": {
      "bidWithERC20(uint256,address)": {
        "details": "ERC20",
        "params": {
          "amount": ""
        }
      },
      "bidWithEth(address)": {
        "details": "ETH  "
      },
      "endAuction()": {
        "details": ""
      },
      "initialize(address,address,uint256,uint256,uint256,uint256,address,address,address)": {
        "details": ""
      },
      "setPriceFeed(address,address)": {
        "details": "",
        "params": {
          "feed": "",
          "token": ""
        }
      }
    },
    "title": "Auction",
    "version": 1
  },
  "userdoc": {
    "kind": "user",
    "methods": {},
    "version": 1
  },
  "storageLayout": {
    "storage": [
      {
        "astId": 5275,
        "contract": "contracts/Auction.sol:Auction",
        "label": "_status",
        "offset": 0,
        "slot": "0",
        "type": "t_uint256"
      },
      {
        "astId": 11301,
        "contract": "contracts/Auction.sol:Auction",
        "label": "seller",
        "offset": 0,
        "slot": "1",
        "type": "t_address"
      },
      {
        "astId": 11303,
        "contract": "contracts/Auction.sol:Auction",
        "label": "nftContract",
        "offset": 0,
        "slot": "2",
        "type": "t_address"
      },
      {
        "astId": 11305,
        "contract": "contracts/Auction.sol:Auction",
        "label": "tokenId",
        "offset": 0,
        "slot": "3",
        "type": "t_uint256"
      },
      {
        "astId": 11307,
        "contract": "contracts/Auction.sol:Auction",
        "label": "startPrice",
        "offset": 0,
        "slot": "4",
        "type": "t_uint256"
      },
      {
        "astId": 11309,
        "contract": "contracts/Auction.sol:Auction",
        "label": "startUsdPrice",
        "offset": 0,
        "slot": "5",
        "type": "t_uint256"
      },
      {
        "astId": 11311,
        "contract": "contracts/Auction.sol:Auction",
        "label": "startTime",
        "offset": 0,
        "slot": "6",
        "type": "t_uint256"
      },
      {
        "astId": 11313,
        "contract": "contracts/Auction.sol:Auction",
        "label": "endTime",
        "offset": 0,
        "slot": "7",
        "type": "t_uint256"
      },
      {
        "astId": 11315,
        "contract": "contracts/Auction.sol:Auction",
        "label": "paymentToken",
        "offset": 0,
        "slot": "8",
        "type": "t_address"
      },
      {
        "astId": 11317,
        "contract": "contracts/Auction.sol:Auction",
        "label": "factory",
        "offset": 0,
        "slot": "9",
        "type": "t_address"
      },
      {
        "astId": 11320,
        "contract": "contracts/Auction.sol:Auction",
        "label": "feeManager",
        "offset": 0,
        "slot": "10",
        "type": "t_contract(FeeManager)12780"
      },
      {
        "astId": 11322,
        "contract": "contracts/Auction.sol:Auction",
        "label": "highestBidder",
        "offset": 0,
        "slot": "11",
        "type": "t_address"
      },
      {
        "astId": 11324,
        "contract": "contracts/Auction.sol:Auction",
        "label": "highestBid",
        "offset": 0,
        "slot": "12",
        "type": "t_uint256"
      },
      {
        "astId": 11326,
        "contract": "contracts/Auction.sol:Auction",
        "label": "highestUsdBid",
        "offset": 0,
        "slot": "13",
        "type": "t_uint256"
      },
      {
        "astId": 11330,
        "contract": "contracts/Auction.sol:Auction",
        "label": "bids",
        "offset": 0,
        "slot": "14",
        "type": "t_mapping(t_address,t_uint256)"
      },
      {
        "astId": 11333,
        "contract": "contracts/Auction.sol:Auction",
        "label": "status",
        "offset": 0,
        "slot": "15",
        "type": "t_enum(AuctionStatus)11299"
      },
      {
        "astId": 11337,
        "contract": "contracts/Auction.sol:Auction",
        "label": "priceFeeds",
        "offset": 0,
        "slot": "16",
        "type": "t_mapping(t_address,t_address)"
      }
    ],
    "types": {
      "t_address": {
        "encoding": "inplace",
        "label": "address",
        "numberOfBytes": "20"
      },
      "t_contract(FeeManager)12780": {
        "encoding": "inplace",
        "label": "contract FeeManager",
        "numberOfBytes": "20"
      },
      "t_enum(AuctionStatus)11299": {
        "encoding": "inplace",
        "label": "enum Auction.AuctionStatus",
        "numberOfBytes": "1"
      },
      "t_mapping(t_address,t_address)": {
        "encoding": "mapping",
        "key": "t_address",
        "label": "mapping(address => address)",
        "numberOfBytes": "32",
        "value": "t_address"
      },
      "t_mapping(t_address,t_uint256)": {
        "encoding": "mapping",
        "key": "t_address",
        "label": "mapping(address => uint256)",
        "numberOfBytes": "32",
        "value": "t_uint256"
      },
      "t_uint256": {
        "encoding": "inplace",
        "label": "uint256",
        "numberOfBytes": "32"
      }
    }
  }
}