{
  "address": "0x5FbDB2315678afecb367f032d93F642f64180aa3",
  "abi": [
    {
      "inputs": [],
      "name": "IncompleteRound",
      "type": "error"
    },
    {
      "inputs": [],
      "name": "InvalidPrice",
      "type": "error"
    },
    {
      "inputs": [],
      "name": "MultiplicationOverflow",
      "type": "error"
    },
    {
      "inputs": [],
      "name": "StalePrice",
      "type": "error"
    },
    {
      "inputs": [
        {
          "internalType": "uint256",
          "name": "amount",
          "type": "uint256"
        },
        {
          "internalType": "address",
          "name": "priceFeed_",
          "type": "address"
        }
      ],
      "name": "getUsdValue",
      "outputs": [
        {
          "internalType": "uint256",
          "name": "",
          "type": "uint256"
        }
      ],
      "stateMutability": "view",
      "type": "function"
    }
  ],
  "transactionHash": "0xf4b81854833e8ed7b26a80e5e46da0fe016666bd6f51d91d86cc70a1ff172bd8",
  "args": [],
  "numDeployments": 1,
  "solcInputHash": "6b48cc9546373f84e826272d8b5264f9",
  "bytecode": "0x610819610052600b82828239805160001a6073146045577f4e487b7100000000000000000000000000000000000000000000000000000000600052600060045260246000fd5b30600052607381538281f3fe73000000000000000000000000000000000000000030146080604052600436106100355760003560e01c8063f7655ab41461003a575b600080fd5b610054600480360381019061004f91906103bc565b61006a565b604051610061919061040b565b60405180910390f35b600080829050600061007b826101d2565b9050600081136100b6576040517ebfc92100000000000000000000000000000000000000000000000000000000815260040160405180910390fd5b60008273ffffffffffffffffffffffffffffffffffffffff1663313ce5676040518163ffffffff1660e01b8152600401602060405180830381865afa158015610103573d6000803e3d6000fd5b505050506040513d601f19601f82011682018060405250810190610127919061045f565b60ff16905060008290506000871415801561016c5750867fffffffffffffffffffffffffffffffffffffffffffffffffffffffffffffffff61016991906104ea565b81115b156101a3576040517fd7cb015e00000000000000000000000000000000000000000000000000000000815260040160405180910390fd5b81600a6101b0919061064e565b81886101bc9190610699565b6101c691906104ea565b94505050505092915050565b60008060008060008573ffffffffffffffffffffffffffffffffffffffff1663feaf968c6040518163ffffffff1660e01b815260040160a060405180830381865afa158015610225573d6000803e3d6000fd5b505050506040513d601f19601f820116820180604052508101906102499190610768565b9450945050935093506000831361028b576040517ebfc92100000000000000000000000000000000000000000000000000000000815260040160405180910390fd5b600082116102c5576040517f8ad52bdd00000000000000000000000000000000000000000000000000000000815260040160405180910390fd5b8369ffffffffffffffffffff168169ffffffffffffffffffff161015610317576040517f19abf40e00000000000000000000000000000000000000000000000000000000815260040160405180910390fd5b82945050505050919050565b600080fd5b6000819050919050565b61033b81610328565b811461034657600080fd5b50565b60008135905061035881610332565b92915050565b600073ffffffffffffffffffffffffffffffffffffffff82169050919050565b60006103898261035e565b9050919050565b6103998161037e565b81146103a457600080fd5b50565b6000813590506103b681610390565b92915050565b600080604083850312156103d3576103d2610323565b5b60006103e185828601610349565b92505060206103f2858286016103a7565b9150509250929050565b61040581610328565b82525050565b600060208201905061042060008301846103fc565b92915050565b600060ff82169050919050565b61043c81610426565b811461044757600080fd5b50565b60008151905061045981610433565b92915050565b60006020828403121561047557610474610323565b5b60006104838482850161044a565b91505092915050565b7f4e487b7100000000000000000000000000000000000000000000000000000000600052601260045260246000fd5b7f4e487b7100000000000000000000000000000000000000000000000000000000600052601160045260246000fd5b60006104f582610328565b915061050083610328565b9250826105105761050f61048c565b5b828204905092915050565b60008160011c9050919050565b6000808291508390505b60018511156105725780860481111561054e5761054d6104bb565b5b600185161561055d5780820291505b808102905061056b8561051b565b9450610532565b94509492505050565b60008261058b5760019050610647565b816105995760009050610647565b81600181146105af57600281146105b9576105e8565b6001915050610647565b60ff8411156105cb576105ca6104bb565b5b8360020a9150848211156105e2576105e16104bb565b5b50610647565b5060208310610133831016604e8410600b841016171561061d5782820a905083811115610618576106176104bb565b5b610647565b61062a8484846001610528565b92509050818404811115610641576106406104bb565b5b81810290505b9392505050565b600061065982610328565b915061066483610328565b92506106917fffffffffffffffffffffffffffffffffffffffffffffffffffffffffffffffff848461057b565b905092915050565b60006106a482610328565b91506106af83610328565b92508282026106bd81610328565b915082820484148315176106d4576106d36104bb565b5b5092915050565b600069ffffffffffffffffffff82169050919050565b6106fa816106db565b811461070557600080fd5b50565b600081519050610717816106f1565b92915050565b6000819050919050565b6107308161071d565b811461073b57600080fd5b50565b60008151905061074d81610727565b92915050565b60008151905061076281610332565b92915050565b600080600080600060a0868803121561078457610783610323565b5b600061079288828901610708565b95505060206107a38882890161073e565b94505060406107b488828901610753565b93505060606107c588828901610753565b92505060806107d688828901610708565b915050929550929590935056fea264697066735822122048ff9f6dcbd91bdd07a6ea895c2ab25dc19259ab8b82509873aa1159394e6ae664736f6c634300081b0033",
  "devdoc": {
    "details": "Chainlink",
    "kind": "dev",
    "methods": {
      "getUsdValue(uint256,address)": {
        "details": "",
        "params": {
          "amount": "",
          "priceFeed_": ""
        },
        "returns": {
          "_0": "wei"
        }
      }
    },
    "title": "PriceConverter",
    "version": 1
  },
  "userdoc": {
    "kind": "user",
    "methods": {},
    "version": 1
  },
  "storageLayout": {
    "storage": [],
    "types": null
  }
}